{
  "contractName": "survey",
  "abi": [
    {
      "inputs": [
        {
          "internalType": "string",
          "name": "_id",
          "type": "string"
        }
      ],
      "name": "check_survey",
      "outputs": [
        {
          "internalType": "bool",
          "name": "",
          "type": "bool"
        }
      ],
      "stateMutability": "view",
      "type": "function",
      "constant": true
    },
    {
      "inputs": [
        {
          "internalType": "string",
          "name": "_id",
          "type": "string"
        },
        {
          "internalType": "string",
          "name": "_name",
          "type": "string"
        },
        {
          "internalType": "string",
          "name": "_gender",
          "type": "string"
        },
        {
          "internalType": "uint8",
          "name": "_age",
          "type": "uint8"
        },
        {
          "internalType": "string",
          "name": "_coffee",
          "type": "string"
        }
      ],
      "name": "add_survey",
      "outputs": [],
      "stateMutability": "nonpayable",
      "type": "function"
    },
    {
      "inputs": [],
      "name": "count_list",
      "outputs": [
        {
          "internalType": "uint256",
          "name": "",
          "type": "uint256"
        }
      ],
      "stateMutability": "view",
      "type": "function",
      "constant": true
    },
    {
      "inputs": [
        {
          "internalType": "uint256",
          "name": "_index",
          "type": "uint256"
        }
      ],
      "name": "get_survey",
      "outputs": [
        {
          "internalType": "string",
          "name": "",
          "type": "string"
        },
        {
          "internalType": "string",
          "name": "",
          "type": "string"
        },
        {
          "internalType": "uint8",
          "name": "",
          "type": "uint8"
        },
        {
          "internalType": "string",
          "name": "",
          "type": "string"
        }
      ],
      "stateMutability": "view",
      "type": "function",
      "constant": true
    }
  ],
  "bytecode": "0x608060405234801561001057600080fd5b50610d42806100206000396000f3fe608060405234801561001057600080fd5b506004361061004c5760003560e01c806384bb2bce14610051578063883944f714610084578063b6ceb0bc146100b4578063bc7cca97146100d2575b600080fd5b61006b60048036038101906100669190610584565b6100ee565b60405161007b949392919061065d565b60405180910390f35b61009e600480360381019061009991906107ec565b610359565b6040516100ab9190610850565b60405180910390f35b6100bc6103a6565b6040516100c9919061087a565b60405180910390f35b6100ec60048036038101906100e791906108c1565b6103b8565b005b6060806000606060006001868154811061010b5761010a6109ac565b5b9060005260206000209060040201600001805461012790610a0a565b80601f016020809104026020016040519081016040528092919081815260200182805461015390610a0a565b80156101a05780601f10610175576101008083540402835291602001916101a0565b820191906000526020600020905b81548152906001019060200180831161018357829003601f168201915b505050505090506000600187815481106101bd576101bc6109ac565b5b906000526020600020906004020160010180546101d990610a0a565b80601f016020809104026020016040519081016040528092919081815260200182805461020590610a0a565b80156102525780601f1061022757610100808354040283529160200191610252565b820191906000526020600020905b81548152906001019060200180831161023557829003601f168201915b5050505050905060006001888154811061026f5761026e6109ac565b5b906000526020600020906004020160020160009054906101000a900460ff1690506000600189815481106102a6576102a56109ac565b5b906000526020600020906004020160030180546102c290610a0a565b80601f01602080910402602001604051908101604052809291908181526020018280546102ee90610a0a565b801561033b5780601f106103105761010080835404028352916020019161033b565b820191906000526020600020905b81548152906001019060200180831161031e57829003601f168201915b50505050509050838383839750975097509750505050509193509193565b60008060008360405161036c9190610a77565b908152602001604051809103902060020160009054906101000a900460ff1660ff160361039c57600090506103a1565b600190505b919050565b60008060018054905090508091505090565b836000866040516103c99190610a77565b908152602001604051809103902060000190816103e69190610c3a565b50826000866040516103f89190610a77565b908152602001604051809103902060010190816104159190610c3a565b50816000866040516104279190610a77565b908152602001604051809103902060020160006101000a81548160ff021916908360ff160217905550806000866040516104619190610a77565b9081526020016040518091039020600301908161047e9190610c3a565b50600160405180608001604052808681526020018581526020018460ff16815260200183815250908060018154018082558091505060019003906000526020600020906004020160009091909190915060008201518160000190816104e39190610c3a565b5060208201518160010190816104f99190610c3a565b5060408201518160020160006101000a81548160ff021916908360ff16021790555060608201518160030190816105309190610c3a565b5050505050505050565b6000604051905090565b600080fd5b600080fd5b6000819050919050565b6105618161054e565b811461056c57600080fd5b50565b60008135905061057e81610558565b92915050565b60006020828403121561059a57610599610544565b5b60006105a88482850161056f565b91505092915050565b600081519050919050565b600082825260208201905092915050565b60005b838110156105eb5780820151818401526020810190506105d0565b60008484015250505050565b6000601f19601f8301169050919050565b6000610613826105b1565b61061d81856105bc565b935061062d8185602086016105cd565b610636816105f7565b840191505092915050565b600060ff82169050919050565b61065781610641565b82525050565b600060808201905081810360008301526106778187610608565b9050818103602083015261068b8186610608565b905061069a604083018561064e565b81810360608301526106ac8184610608565b905095945050505050565b600080fd5b600080fd5b7f4e487b7100000000000000000000000000000000000000000000000000000000600052604160045260246000fd5b6106f9826105f7565b810181811067ffffffffffffffff82111715610718576107176106c1565b5b80604052505050565b600061072b61053a565b905061073782826106f0565b919050565b600067ffffffffffffffff821115610757576107566106c1565b5b610760826105f7565b9050602081019050919050565b82818337600083830152505050565b600061078f61078a8461073c565b610721565b9050828152602081018484840111156107ab576107aa6106bc565b5b6107b684828561076d565b509392505050565b600082601f8301126107d3576107d26106b7565b5b81356107e384826020860161077c565b91505092915050565b60006020828403121561080257610801610544565b5b600082013567ffffffffffffffff8111156108205761081f610549565b5b61082c848285016107be565b91505092915050565b60008115159050919050565b61084a81610835565b82525050565b60006020820190506108656000830184610841565b92915050565b6108748161054e565b82525050565b600060208201905061088f600083018461086b565b92915050565b61089e81610641565b81146108a957600080fd5b50565b6000813590506108bb81610895565b92915050565b600080600080600060a086880312156108dd576108dc610544565b5b600086013567ffffffffffffffff8111156108fb576108fa610549565b5b610907888289016107be565b955050602086013567ffffffffffffffff81111561092857610927610549565b5b610934888289016107be565b945050604086013567ffffffffffffffff81111561095557610954610549565b5b610961888289016107be565b9350506060610972888289016108ac565b925050608086013567ffffffffffffffff81111561099357610992610549565b5b61099f888289016107be565b9150509295509295909350565b7f4e487b7100000000000000000000000000000000000000000000000000000000600052603260045260246000fd5b7f4e487b7100000000000000000000000000000000000000000000000000000000600052602260045260246000fd5b60006002820490506001821680610a2257607f821691505b602082108103610a3557610a346109db565b5b50919050565b600081905092915050565b6000610a51826105b1565b610a5b8185610a3b565b9350610a6b8185602086016105cd565b80840191505092915050565b6000610a838284610a46565b915081905092915050565b60008190508160005260206000209050919050565b60006020601f8301049050919050565b600082821b905092915050565b600060088302610af07fffffffffffffffffffffffffffffffffffffffffffffffffffffffffffffffff82610ab3565b610afa8683610ab3565b95508019841693508086168417925050509392505050565b6000819050919050565b6000610b37610b32610b2d8461054e565b610b12565b61054e565b9050919050565b6000819050919050565b610b5183610b1c565b610b65610b5d82610b3e565b848454610ac0565b825550505050565b600090565b610b7a610b6d565b610b85818484610b48565b505050565b5b81811015610ba957610b9e600082610b72565b600181019050610b8b565b5050565b601f821115610bee57610bbf81610a8e565b610bc884610aa3565b81016020851015610bd7578190505b610beb610be385610aa3565b830182610b8a565b50505b505050565b600082821c905092915050565b6000610c1160001984600802610bf3565b1980831691505092915050565b6000610c2a8383610c00565b9150826002028217905092915050565b610c43826105b1565b67ffffffffffffffff811115610c5c57610c5b6106c1565b5b610c668254610a0a565b610c71828285610bad565b600060209050601f831160018114610ca45760008415610c92578287015190505b610c9c8582610c1e565b865550610d04565b601f198416610cb286610a8e565b60005b82811015610cda57848901518255600182019150602085019450602081019050610cb5565b86831015610cf75784890151610cf3601f891682610c00565b8355505b6001600288020188555050505b50505050505056fea26469706673582212208c11145b9726ef2301e1c3f3421c50dc18308582555e7e78c00fe5ca4ace297864736f6c63430008130033",
  "immutableReferences": {},
  "source": "// SPDX-License-Identifier: MIT\r\npragma solidity = 0.8.19;\r\n\r\ncontract survey{\r\n    //   \r\n    // , , , , \r\n    // mapping        \r\n    // mapping key  value , , \r\n    //     \r\n\r\n    //  \r\n    struct survey_info {\r\n        string name;\r\n        string gender;\r\n        uint8 age;\r\n        string coffee;\r\n    }\r\n\r\n    // mapping  \r\n    mapping(string => survey_info) internal survey;\r\n\r\n    //  \r\n    survey_info[] internal survey_list;\r\n\r\n    //      \r\n    function check_survey(string memory _id) public view returns(bool){\r\n        //    ?\r\n        //    -> \r\n        // mapping     0\r\n        if (survey[_id].age == 0){\r\n            return false;\r\n        }else{\r\n            return true;\r\n        }\r\n    }\r\n\r\n    //   \r\n    // mapping   \r\n    //   \r\n    function add_survey(\r\n        string memory _id, \r\n        string memory _name, \r\n        string memory _gender, \r\n        uint8 _age, \r\n        string memory _coffee)\r\n        public {\r\n            //   mapping \r\n            survey[_id].name = _name;\r\n            survey[_id].gender = _gender;\r\n            survey[_id].age = _age;\r\n            survey[_id].coffee = _coffee;\r\n            //    \r\n            survey_list.push(\r\n                survey_info(_name, _gender, _age, _coffee\r\n                ));\r\n        }\r\n\r\n\r\n        //    \r\n        function count_list() public view returns(uint){\r\n            uint result = survey_list.length;\r\n            return result;\r\n        }\r\n\r\n        //    \r\n        function get_survey(\r\n            uint _index) public view returns (\r\n                string memory, \r\n                string memory, \r\n                uint8, \r\n                string memory\r\n            ){\r\n                string memory name = survey_list[_index].name;\r\n                string memory gender = survey_list[_index].gender;\r\n                uint8 age = survey_list[_index].age;\r\n                string memory coffee = survey_list[_index].coffee;\r\n\r\n                return (name, gender, age, coffee);\r\n            }\r\n        \r\n}",
  "sourcePath": "C:\\Users\\moons\\Documents\\GitHub\\new_deal\\sample_server\\contracts\\survey.sol",
  "compiler": {
    "name": "solc",
    "version": "0.8.19+commit.7dd6d404.Emscripten.clang"
  },
  "schemaVersion": "3.4.13",
  "updatedAt": "2023-05-24T06:47:59.220Z",
  "networkType": "ethereum",
  "devdoc": {
    "kind": "dev",
    "methods": {},
    "version": 1
  },
  "userdoc": {
    "kind": "user",
    "methods": {},
    "version": 1
  }
}