{
  "contractName": "user_info",
  "abi": [
    {
      "inputs": [
        {
          "internalType": "string",
          "name": "_id",
          "type": "string"
        },
        {
          "internalType": "string",
          "name": "_pass",
          "type": "string"
        },
        {
          "internalType": "string",
          "name": "_name",
          "type": "string"
        },
        {
          "internalType": "string",
          "name": "_phone",
          "type": "string"
        }
      ],
      "name": "add_user",
      "outputs": [],
      "stateMutability": "nonpayable",
      "type": "function"
    },
    {
      "inputs": [
        {
          "internalType": "string",
          "name": "_id",
          "type": "string"
        }
      ],
      "name": "view_info",
      "outputs": [
        {
          "internalType": "string",
          "name": "",
          "type": "string"
        },
        {
          "internalType": "string",
          "name": "",
          "type": "string"
        },
        {
          "internalType": "string",
          "name": "",
          "type": "string"
        }
      ],
      "stateMutability": "view",
      "type": "function",
      "constant": true
    }
  ],
  "bytecode": "0x608060405234801561001057600080fd5b50610b0b806100206000396000f3fe608060405234801561001057600080fd5b50600436106100365760003560e01c80631716b0111461003b578063d1c37f661461006d575b600080fd5b61005560048036038101906100509190610543565b610089565b6040516100649392919061060b565b60405180910390f35b61008760048036038101906100829190610657565b6102a8565b005b60608060606000808560405161009f919061076a565b908152602001604051809103902060010180546100bb906107b0565b80601f01602080910402602001604051908101604052809291908181526020018280546100e7906107b0565b80156101345780601f1061010957610100808354040283529160200191610134565b820191906000526020600020905b81548152906001019060200180831161011757829003601f168201915b505050505090506000808660405161014c919061076a565b90815260200160405180910390206002018054610168906107b0565b80601f0160208091040260200160405190810160405280929190818152602001828054610194906107b0565b80156101e15780601f106101b6576101008083540402835291602001916101e1565b820191906000526020600020905b8154815290600101906020018083116101c457829003601f168201915b50505050509050600080876040516101f9919061076a565b90815260200160405180910390206003018054610215906107b0565b80601f0160208091040260200160405190810160405280929190818152602001828054610241906107b0565b801561028e5780601f106102635761010080835404028352916020019161028e565b820191906000526020600020905b81548152906001019060200180831161027157829003601f168201915b505050505090508282829550955095505050509193909250565b600080856040516102b9919061076a565b908152602001604051809103902060000160009054906101000a900460ff1660ff161461031b576040517f08c379a00000000000000000000000000000000000000000000000000000000081526004016103129061082d565b60405180910390fd5b8260008560405161032c919061076a565b908152602001604051809103902060010190816103499190610a03565b508160008560405161035b919061076a565b908152602001604051809103902060020190816103789190610a03565b508060008560405161038a919061076a565b908152602001604051809103902060030190816103a79190610a03565b5060016000856040516103ba919061076a565b908152602001604051809103902060000160006101000a81548160ff021916908360ff16021790555050505050565b6000604051905090565b600080fd5b600080fd5b600080fd5b600080fd5b6000601f19601f8301169050919050565b7f4e487b7100000000000000000000000000000000000000000000000000000000600052604160045260246000fd5b61045082610407565b810181811067ffffffffffffffff8211171561046f5761046e610418565b5b80604052505050565b60006104826103e9565b905061048e8282610447565b919050565b600067ffffffffffffffff8211156104ae576104ad610418565b5b6104b782610407565b9050602081019050919050565b82818337600083830152505050565b60006104e66104e184610493565b610478565b90508281526020810184848401111561050257610501610402565b5b61050d8482856104c4565b509392505050565b600082601f83011261052a576105296103fd565b5b813561053a8482602086016104d3565b91505092915050565b600060208284031215610559576105586103f3565b5b600082013567ffffffffffffffff811115610577576105766103f8565b5b61058384828501610515565b91505092915050565b600081519050919050565b600082825260208201905092915050565b60005b838110156105c65780820151818401526020810190506105ab565b60008484015250505050565b60006105dd8261058c565b6105e78185610597565b93506105f78185602086016105a8565b61060081610407565b840191505092915050565b6000606082019050818103600083015261062581866105d2565b9050818103602083015261063981856105d2565b9050818103604083015261064d81846105d2565b9050949350505050565b60008060008060808587031215610671576106706103f3565b5b600085013567ffffffffffffffff81111561068f5761068e6103f8565b5b61069b87828801610515565b945050602085013567ffffffffffffffff8111156106bc576106bb6103f8565b5b6106c887828801610515565b935050604085013567ffffffffffffffff8111156106e9576106e86103f8565b5b6106f587828801610515565b925050606085013567ffffffffffffffff811115610716576107156103f8565b5b61072287828801610515565b91505092959194509250565b600081905092915050565b60006107448261058c565b61074e818561072e565b935061075e8185602086016105a8565b80840191505092915050565b60006107768284610739565b915081905092915050565b7f4e487b7100000000000000000000000000000000000000000000000000000000600052602260045260246000fd5b600060028204905060018216806107c857607f821691505b6020821081036107db576107da610781565b5b50919050565b7f4572726f72000000000000000000000000000000000000000000000000000000600082015250565b6000610817600583610597565b9150610822826107e1565b602082019050919050565b600060208201905081810360008301526108468161080a565b9050919050565b60008190508160005260206000209050919050565b60006020601f8301049050919050565b600082821b905092915050565b6000600883026108af7fffffffffffffffffffffffffffffffffffffffffffffffffffffffffffffffff82610872565b6108b98683610872565b95508019841693508086168417925050509392505050565b6000819050919050565b6000819050919050565b60006109006108fb6108f6846108d1565b6108db565b6108d1565b9050919050565b6000819050919050565b61091a836108e5565b61092e61092682610907565b84845461087f565b825550505050565b600090565b610943610936565b61094e818484610911565b505050565b5b818110156109725761096760008261093b565b600181019050610954565b5050565b601f8211156109b7576109888161084d565b61099184610862565b810160208510156109a0578190505b6109b46109ac85610862565b830182610953565b50505b505050565b600082821c905092915050565b60006109da600019846008026109bc565b1980831691505092915050565b60006109f383836109c9565b9150826002028217905092915050565b610a0c8261058c565b67ffffffffffffffff811115610a2557610a24610418565b5b610a2f82546107b0565b610a3a828285610976565b600060209050601f831160018114610a6d5760008415610a5b578287015190505b610a6585826109e7565b865550610acd565b601f198416610a7b8661084d565b60005b82811015610aa357848901518255600182019150602085019450602081019050610a7e565b86831015610ac05784890151610abc601f8916826109c9565b8355505b6001600288020188555050505b50505050505056fea2646970667358221220104ddf4fa389900804fec0e9a2cce5515d892a9680a0626586fdc5b42f1dbe8864736f6c63430008130033",
  "immutableReferences": {},
  "source": "// SPDX-License-Identifier: MIT\r\npragma solidity >=0.4.0 <0.9.0;\r\n\r\ncontract user_info{\r\n    //     \r\n\r\n    //      \r\n    struct info{\r\n        uint8 state;\r\n        string pass;\r\n        string name;\r\n        string phone;\r\n    }\r\n\r\n    // public :    \r\n    // private :     \r\n    // internal :       \r\n\r\n\r\n    // mapping  \r\n    //  ID  info   \r\n    mapping (string => info) internal users;\r\n\r\n    //     \r\n    function add_user(\r\n        string memory _id, \r\n        string memory _pass, \r\n        string memory _name, \r\n        string memory _phone) public {\r\n            require(users[_id].state == 0, 'Error');\r\n            // mapping   \r\n            // mapping [].  = value\r\n            users[_id].pass = _pass;\r\n            users[_id].name = _name;\r\n            users[_id].phone = _phone;\r\n            users[_id].state = 1;\r\n        }\r\n\r\n        //    \r\n        function view_info(\r\n            string memory _id) public \r\n            view returns(\r\n                string memory, \r\n                string memory, \r\n                string memory) {\r\n                    string memory pass = users[_id].pass;\r\n                    string memory name = users[_id].name;\r\n                    string memory phone = users[_id].phone;\r\n                    return (pass, name, phone);\r\n                } \r\n\r\n\r\n\r\n}\r\n",
  "sourcePath": "C:\\Users\\moons\\Documents\\GitHub\\new_deal\\contract_server\\contracts\\user_info.sol",
  "compiler": {
    "name": "solc",
    "version": "0.8.19+commit.7dd6d404.Emscripten.clang"
  },
  "schemaVersion": "3.4.13",
  "updatedAt": "2023-05-12T07:54:59.348Z",
  "networkType": "ethereum",
  "devdoc": {
    "kind": "dev",
    "methods": {},
    "version": 1
  },
  "userdoc": {
    "kind": "user",
    "methods": {},
    "version": 1
  }
}